:020000040800F2
:10000000B80E0020495A0008810400088304000843
:10001000870400088B0400088F040008000000001B
:100020000000000000000000000000009304000831
:1000300095040008000000009704000899040008D7
:10004000635A0008635A0008635A0008635A00089C
:10005000635A0008635A0008635A0008635A00088C
:10006000635A0008635A0008635A0008635A00087C
:10007000635A0008635A0008635A0008635A00086C
:10008000635A0008635A0008635A0008635A00085C
:10009000635A0008635A0008635A0008ED0E00080E
:1000A000635A0008635A0008635A0008635A00083C
:1000B0003D3F000843050008253F0008635A00083B
:1000C000635A0008635A0008635A0008635A00081C
:1000D000635A0008BF590008635A0008635A0008B1
:1000E000635A0008635A0008635A0008635A0008FC
:1000F000635A0008635A0008635A0008635A0008EC
:10010000635A0008635A000891060008635A000801
:10011000635A0008635A0008635A0008635A0008CB
:10012000635A0008635A0008635A0008635A0008BB
:1001300000F002F800F05FF80AA090E8000C82449A
:100140008344AAF10107DA4501D100F054F8AFF277
:10015000090EBAE80F0013F0010F18BFFB1A43F0A5
:1001600001031847C4AD0000E4AD00000A444FF09D
:10017000000C10F8013B13F0070408BF10F8014B06
:100180001D1108BF10F8015B641E05D010F8016B4B
:10019000641E01F8016BF9D113F0080F1EBF10F8AF
:1001A000014BAD1C0C1B09D16D1E58BF01F801CBD2
:1001B000FAD505E014F8016B01F8016B6D1EF9D555
:1001C0009142D6D37047000000230024002500266A
:1001D000103A28BF78C1FBD8520728BF30C148BFAA
:1001E0000B607047642907F06984002070471FB5D1
:1001F0001FBD10B510BD07F031FE1146FFF7F7FF28
:1002000000F008F807F04FFE03B4FFF7F2FF03BC5D
:1002100005F07AFB00BF05F00DFB4FF4A06005F080
:1002200033FC4FF4E13005F07EFB00F037F900219C
:1002300041F61F4004F0F8FA03F0B8FD03F003FEA6
:1002400000F092FA05F04BF804F046F804F00DFDCA
:1002500004F01FFD03F086FE00230BA207214820B7
:1002600005F09FF80FE00B48007808B905F0BAFADE
:1002700001200949087000200849087000BF06489D
:1002800000780028FBD1EEE74D616B65723A547936
:100290007A00000007000020350000203400002014
:1002A0000CB50020019000906C48006840F480304C
:1002B0006A49086000BF6948006800F40030009097
:1002C0000198401C0190009818B90198B0F5A06FF2
:1002D000F1D16248006800F4003010B101200090B4
:1002E00001E0002000900098012843D15C4800689C
:1002F00040F010005A4908600846006820F00300EA
:1003000008600846006840F00200086053484068F2
:10031000524948600846406848600846406840F4D2
:10032000806048600846406820F47C1048600846B9
:10033000406840F4E81048600846006840F080706B
:10034000086000BF4548006800F000700028F9D040
:100350004248406820F00300404948600846406831
:1003600040F00200486000BF3C48406800F00C00CC
:100370000828F9D10CBD10B5FFF792FF10BD10B5DC
:100380003648006840F0010034490860084640687B
:1003900034490840314948600846006832490840FD
:1003A0002E4908600846006820F48020086008464E
:1003B000406820F4FE0048604FF41F008860FFF79B
:1003C000DAFF4FF000602949086010BD10B5002128
:1003D00000200022214B5B6803F00C0121B10429AD
:1003E00006D0082928D107E0214B224C236027E0C2
:1003F0001F4B204C236023E0184B5B6803F4701004
:10040000164B5B6803F48032022303EB904022B961
:10041000194B4343174C23600DE0104B5B6803F40A
:10042000003323B1144B4343124C236003E0104BC1
:100430004343104C236003E00D4B0E4C236000BF80
:1004400000BF064B5B68C3F303130C4CE15C094B24
:100450001B68CB40074C236010BD00000010024019
:10046000002002400000FFF8FFFFF6FE08ED00E06C
:1004700000127A005000002000093D0054000020C6
:10048000704700BFFEE700BFFEE700BFFEE700BF0A
:10049000FEE77047704770477047000008B50121BC
:1004A000482005F07BFE2020ADF8000010208DF8DC
:1004B000030003208DF802006946094805F0B2FBED
:1004C0002021074805F05BFC2020ADF800006946BC
:1004D000044805F0A7FB2021024805F050FC08BDA8
:1004E000000C0140001801407FB505460C46012173
:1004F000022005F060FEADF80850ADF80440002081
:10050000ADF80A00ADF8060001A98E4805F07EFF9F
:10051000012241218B4806F0F0FA1D208DF80000E1
:1005200000208DF8010003208DF8020001208DF8D5
:100530000300684605F0ADFA0121824806F0C2FAD0
:100540007FBD10B501217F4806F085FD58B101211E
:100550007C4806F091FD7C48006808B9012000E065
:1005600000207949086010BD30B589B005460C46B9
:100570000121022005F01FFE0121092005F00EFED9
:100580000121724805F01FFC2020ADF82000182042
:100590008DF8230003208DF8220008A96C4805F08F
:1005A00041FBADF81850ADF814400020ADF81A002A
:1005B000ADF8160005A9634805F028FF7020ADF8D6
:1005C00004000120ADF806000020ADF80A00ADF8E7
:1005D0000C0001A95B4805F098FF0821594806F076
:1005E000AAFB0121574806F06DFB0121554806F092
:1005F00069FA09B030BD30B585B005460C46012119
:10060000082005F0D8FD0121042005F0C7FD0120D8
:10061000ADF8100028208DF8130004A94D4805F00E
:1006200001FB01214B4805F0ACFBADF80850ADF8DB
:1006300004400020ADF80A00ADF8060001A94648C4
:1006400005F0E4FE002045490880488001208880AC
:100650000020C8800881404806F06BF932208DF8F0
:10066000000002208DF8010000208DF8020001201A
:100670008DF80300684605F00CFA01220321364884
:1006800006F03BFA0121344806F01CFA05B030BDF3
:1006900010B53348007800F0800000284CD10121CB
:1006A0002D4806F0D8FCD0B12D48007800F040006D
:1006B000A8B12B48007800F03F003F280AD1284815
:1006C000007840F08000264908704FF6FF702549F9
:1006D000088004E022480078401C2149087002216B
:1006E0001D4806F0B8FC38B31D48007800F0400003
:1006F00078B11B48007840F080001949087016480E
:1007000006F08AFC174908800021134806F08CFB8C
:1007100012E00020124908701249088000210E489A
:1007200006F064FC0E48007840F040000C49087068
:100730000221094806F078FB0321074806F09CFCDB
:1007400010BD0000000400409401234200081A007C
:10075000000C014000080140000C0040BC060020D5
:10076000640000206600002000B587B001214FF42E
:10077000017005F013FD4FF4004005F073FC1020EC
:10078000ADF8040000208DF8070001A93C4805F0F1
:1007900049FA3C4806F006FF002002908DF80C0054
:1007A0008DF80D004FF4602004900020059001208A
:1007B0008DF8180002A9334806F01BFF01213148CB
:1007C00006F043FF2F4806F062FF00BF2D4806F0F9
:1007D00063FF0028FAD12B4806F068FF00BF2948C4
:1007E00006F069FF0028FAD107B000BD10B5044635
:1007F000072301222146234806F093FF01212148C7
:1008000006F063FF00BF02211E4807F0CFF8002862
:10081000F9D01C4806F0ECFF10BD2DE9F04F87B071
:100820000420FFF7E3FF834608F063F94FF06632D8
:10083000154BCDE9000108F0ABF90022134BCDE9CF
:10084000020108F0A5F980460022114B08F0A0F93A
:10085000064600220F4B07F0C5FF00220E4BCDE9E4
:10086000040107F0BFFF044608F014F9824640F285
:10087000EC40824500DD8246504607B0BDE8F08F6F
:10088000000801400024014066660A40000027403D
:10089000000059400000F83F0000B0400146002928
:1008A00001DA484200E00846704700B503460A46B0
:1008B000002B07DA0120FC4908600020FB49C1F841
:1008C000B80106E00020F84908600120F749C1F8A6
:1008D000B8011846FFF7E2FFF5490880002A08DA58
:1008E0000020F149083908600120F049C1F8B00141
:1008F00007E00120EC49083908600020EB49C1F805
:10090000B0011046FFF7CAFFE9490C31088000BD6D
:1009100070B505460E46E749284608F00BFE04D39D
:10092000E549284608F006FF0ED201240020DE49E2
:10093000091F0860DD49C1F8BC01DB4908390860BE
:10094000DA49C1F8B00100E00024204670BD41F64C
:10095000F420DA490978012905D1D9490968A1F5B6
:100960009671D74A1160D7490978012905D1D6492E
:10097000096801F59671D44A1160D149096842426B
:10098000914202DA4142CE4A1160CD490968814262
:1009900001DDCB490860CC4909684242914202DA44
:1009A0004142C94A1160C8490968814201DDC6490E
:1009B000086070472DE9F84F05460E469146C3483A
:1009C0000078582191FBF0F7384608F087FD04467F
:1009D000DFF8FCA24FF0000BBE480078012803D0DE
:1009E000BD480078012834D14FF07E51BB480068E3
:1009F00008F0D4FBB949074608604FF07E5108F073
:100A0000FDFC07D1A819FFF749FF074608F066FD6E
:100A1000B3490860B2480168B24808F02DFCB249F9
:100A200008600846006808F08DFB07464FF0333237
:100A3000AE4B08F071F802D2AD48AB490860AD4941
:100A4000A948006808F076FE0BD2AA48A6490860BB
:100A500007E0A948A44908600020A0490860A0490F
:100A600008609C480078012808D19F480168A34885
:100A7000006808F09BFEA14908600FE096480078E6
:100A8000012808D1984801689C48006808F086FB56
:100A90009A49086002E0002098490860214697487A
:100AA000006808F047FE01D29448046084F00047D3
:100AB00092480168384608F03DFE03D284F00040B9
:100AC0008E4908607D480078012803D07D48007871
:100AD000012802D14FF07C5B01E04FF0000B59463A
:100AE000484608F05BFD00908448006880F00048AC
:100AF0005146404608F052FD0746009908F056FE60
:100B00007F4908600846006808F0ACFCBDE8F88F33
:100B10002DE9F05F7B487C49086000207B49086034
:100B20007B4909687B4A12681144084608F0D6FCE4
:100B3000794908607948006808F004FB0646784A5D
:100B4000784B08F025F8044607F05EFD734908600D
:100B50007148006808F0F6FA8046714A724B08F056
:100B600017F804460D466D48006808F0EBFA064693
:100B700022462B4607F07AFD824607F045FD67497D
:100B80000860084601686948006808F007FB674983
:100B900008605E4801686548006808F007FE634920
:100BA000086063496148006808F0C4FD02D26048EB
:100BB0005E4908605F495D48006808F0BBFC02D2EE
:100BC0005C485A4908605C4801685848006808F069
:100BD000E5FC0446594801685048006808F0DEFC0E
:100BE0000546214608F0DAFA55490860554801687B
:100BF00055480068FFF78CFE012803D05348007861
:100C0000012802D10020494908604D48006808F0D9
:100C100029FCBDE8F09F2DE9F04705460C464FF052
:100C20004041284608F0C2FD8046494801682046F8
:100C300008F0B4FC814641464648006808F0AEFC26
:100C40008246494608F0AAFA074608F00BFC064619
:100C50003046BDE8F08770472DE9F04F89B08146F6
:100C600004F00FFA3C490860B9F1010F1BD104F000
:100C700077F83A480068344908603949B1F9020008
:100C800008F02CFC374908603549B1F9040008F038
:100C900025FC354908603549B1F9040008F01EFC0F
:100CA000334908601FE165E0BC8121420080214298
:100CB000342C0140000020C200002042010000202E
:100CC0001000002002000020140000200500002079
:100CD000000028420300002004000020AC00002097
:100CE000A400002000004842A80000203333E33F66
:100CF0009A99193F000040406666663F9C000020BC
:100D0000A000002000003442980000209000002045
:100D1000080000200C000020880000208C0000202B
:100D20009A9999999999E93F9999C93F9400002016
:100D300000401C4600401CC64C000020480000201B
:100D4000840000201C00002020000020060000205D
:100D50004400002040000020180000204C0100202A
:100D60003C01002024000020280000204201002037
:100D70003C0000204621D02003F059FC804645214C
:100D8000D02003F054FC08EB0027384608F0A6FBFF
:100D900004464821D02003F04AFC80464721D02059
:100DA00003F045FC08EB0027384608F097FB0646A1
:100DB0003C21D02003F03BFC80463B21D02003F0B7
:100DC00036FC08EB0027384608F088FB83464021B4
:100DD000D02003F02CFC80463F21D02003F027FCDC
:100DE00008EB0027384608F079FB05464FF08E41A6
:100DF000204608F09FFC05D24FF08F41204608F0B6
:100E0000D5FC04464FF08E41304608F093FC05D2E5
:100E10004FF08F41304608F0C9FC06464FF08E4136
:100E2000584608F087FC05D24FF08F41584608F02D
:100E3000BDFC83464FF08E41284608F07BFC05D26E
:100E40004FF08F41284608F0B1FC054684F0004081
:100E5000B4490860284608F075F9CDE90001584604
:100E600008F070F90746DDE9002307F0E7FA0022F1
:100E7000AD4BCDE9020107F08BFEAC4AAC4BCDE99E
:100E8000040107F0AFFCCDE9060107F0BDFB824687
:100E9000204608F057F94FF06632A64BCDE906011F
:100EA00007F0A0FC074607F0AFFB0446A248007815
:100EB000022806D184F000473946504603F088F8EE
:100EC00009E09D480078032805D184F000473946A1
:100ED000504603F094F99948006899490860994888
:100EE00006609948056009B0BDE8F08F10B59748D5
:100EF0000068002872D12020954908609548007844
:100F000008B9012000E0002092490870924800785A
:100F100001280BD191480078401CC0B28F4908705D
:100F20000A2803D1002008708B490870894800788E
:100F3000012805D180480078FFF78EFE002010BD03
:100F4000022002F0CAFF404285490860042002F0F6
:100F5000C4FF8449086078480078FFF77DFEFFF7FA
:100F60007AFE7048016876480068FFF754FE7E49B3
:100F700008607C4801687A480068FFF7C9FD7B4932
:100F80000860704802687748016875480068FFF794
:100F900011FD774908607448006874490968401A6F
:100FA00073490968401A734908606F4800686F49BF
:100FB0000968401A6E49096808446F490860FFF7DC
:100FC000C6FC6E4801685E480068FFF7A1FC28B9BE
:100FD0006948016867480068FFF767FC0020AEE7D2
:100FE0002DE9F04107460E4614461D466448008828
:100FF000E0B92046FFF752FC02462846FFF74EFCB8
:1010000010441E2805DA5F480088401C5D490880AE
:1010100002E000205B4908805A4800880A2805DD64
:10102000012057490880002056490880544800880C
:1010300001281DD154480088401C80B252490880C4
:10104000C82803DD002008804D4908804F493846F4
:1010500008F070FB0CD24E49304608F06BFB07D20B
:101060004C49304608F066FA02D202204449088012
:1010700043480088022816D147480088401C80B2A7
:1010800045490880642803DD002008803C49088029
:101090006019FFF703FC872805DD00203849088028
:1010A0000120BDE8F0810020FBE770B506460C4644
:1010B00015463A48007808B9002070BD38480088C5
:1010C00078B93849304608F035FB0AD24FF08241F2
:1010D000304608F02FFA04D21CB915B90120304966
:1010E00008802F480088012819D12F480088401C0B
:1010F00080B22D490880322803DD0020088028496D
:101100000880032C0BDD032D09DD3C2C07DA3C2D78
:1011100005DA00202249088008800120CDE7002060
:10112000CBE700002400002000806640F1D4C853C3
:10113000FB2109406666304000000020EC000020E2
:1011400020000020280000203C00002014812142C3
:1011500014040140740000203500002034000020F9
:10116000080000200C000020680000206C00002017
:101170007000002010000020140000201C0000203F
:10118000B0000020B2000020B40000200020CB46B8
:101190000000B0C100009041B60000200600002011
:1011A000B8000020000040C1BA00002038B5044655
:1011B000FB4890F82400C0B114B10220009001E077
:1011C00000200090F64A1268D17BF54A52681078E8
:1011D0006B46012203F08CF910B14FF0FF3038BD9F
:1011E0009DF80010EE48417423E0ED48807A10B974
:1011F0004FF0FF30F3E724B1E948407C08B100200C
:10120000EDE714B10120009001E000200090E44AD5
:101210001268D17BE24A526810786B46012203F0D3
:1012200067F910B14FF0FF30D9E79DF80010DC48A6
:1012300041740020D3E738B5002419E0D84800688D
:10124000C07AA04204D0D6480068407DA04200D1B8
:101250000CE0D349496808786B460122214603F027
:10126000ABF910B14FF0FF3038BD00BF601CC4B205
:10127000CB4840680079A042E0DC0020F4E770B57C
:1012800004460D46C6480068C07AA04204D0C4484F
:101290000068407DA04202D14FF0FF3070BDC048D1
:1012A00040680079A04202DC4FF0FF30F6E7BC490D
:1012B000496808782B460122214603F07DF9EDE7C5
:1012C00038B50446B64890F82300A04201D100206A
:1012D00038BD14B13020009001E000200090B048EB
:1012E000807C20B19DF8000040F002000090AC48E6
:1012F00090F8220020B19DF8000040F0800000909E
:10130000A74A1268117DA64A526810786B460122DE
:1013100003F0EEF810B14FF0FF30D9E7A04880F8A5
:1013200023400020D4E738B5044604F0700010B123
:101330000120009005E014B10020009001E0402061
:101340000090974A1268917C954A526810786B46D3
:10135000012203F0CDF820B1002191488172481E8E
:1013600038BD9DF8000020F040018D480173002039
:10137000009004F0400020B99DF8000040F0040007
:10138000009004F0200020B99DF8000040F0020019
:10139000009004F0100020B99DF8000040F001001A
:1013A000009004F0080020B99DF8000040F03800DB
:1013B00000907B4A1268D17C794A526810786B465B
:1013C000012203F095F820B1002175488172481E72
:1013D000C6E724B1082C02D00020FFF771FF704847
:1013E000847200210175322004F061FA0020B7E711
:1013F00038B504466A48807CA04201D1002038BD3F
:10140000002C46D0664A12681179654A52681078F5
:101410006B46012203F0D0F810B14FF0FF30EEE739
:101420009DF8000020F0200000905D4A12681179BC
:101430005B4A526810786B46012203F059F810B1EC
:101440004FF0FF30DBE7032004F031FA0220009078
:10145000534890F8220020B19DF8000040F0800031
:1014600000904F4890F8230020B19DF8000040F014
:10147000300000904A4A1268117D494A526810783B
:101480006B46012203F034F8002851D04FF0FF30B2
:10149000B5E7434A12681179414A526810786B46A1
:1014A000012203F089F810B14FF0FF30A7E73C4864
:1014B000807A00F0010028B19DF8000040F0200083
:1014C000009004E09DF8000020F020000090344AD5
:1014D00012681179324A526810786B46012203F083
:1014E00007F810B14FF0FF3089E7032004F0DFF96F
:1014F0002B4890F8220010B18020009001E00020DD
:101500000090274890F8230020B19DF8000040F09B
:1015100030000090224A1268117D214A52681078EA
:101520006B46012202F0E4FF10B14FF0FF3066E796
:101530001B488474002062E708B51948807A10B906
:101540004FF0FF3008BD00200090154A1268D17B93
:10155000134A526810786B46012202F0C9FF10B19D
:101560004FF0FF30EEE70E4A126851790C4A52688C
:1015700010786B46012202F0BBFF10B14FF0FF3034
:10158000E0E7074A12681179054A526810786B46FD
:10159000012202F0ADFF28B14FF0FF30D2E700008A
:1015A000BC000020F74890F82400002850D00C2000
:1015B0000090F44A12681179F24A526810786B462A
:1015C000012202F095FF10B14FF0FF30BAE7C020C2
:1015D0000090EC48807A00F0010020B19DF80000F6
:1015E00040F020000090E74A12681179E54A5268FD
:1015F00010786B46012202F07BFF10B14FF0FF30F4
:10160000A0E7E048407C10B10220009001E00020FB
:101610000090DC4A1268D17BDA4A526810786B4637
:10162000012202F065FF10B14FF0FF308AE7002081
:101630000090D44A12685179D24A526810786B46A9
:10164000012202F055FF002852D04FF0FF3079E719
:1016500004200090CB4A12681179CA4A5268107867
:101660006B46012202F044FF10B14FF0FF3069E7F2
:10167000C448807C20B9C348807A00F0010010B9CA
:101680004020009001E060200090BE4A126811796D
:10169000BC4A526810786B46012202F029FF10B153
:1016A0004FF0FF304EE7B748407C10B1012000906A
:1016B00001E000200090B34A1268D17BB14A526821
:1016C00010786B46012202F013FF10B14FF0FF308B
:1016D00038E7AC4A12685179AA4A52681078A94B87
:1016E0001033012202F004FF10B14FF0FF3029E760
:1016F000002027E770B50446002624F00104A14825
:1017000090F8240008B1002070BD9E48807A10B97E
:101710004FF0FF30F8E79B48057C807A20409949DC
:1017200008740846007CA04202D04FF0FF3600E06B
:10173000002614B99348007D18B10120FFF736FD4B
:1017400002E00020FFF732FD3CB1FFF7F5FE20B1CB
:101750008C4805744FF0FF30D6E73046D4E738B5F3
:1017600004468848807A10B94FF0FF3038BDBC2C51
:1017700002DB0120009015E0622C02DB02200090C9
:1017800010E02A2C02DB032000900BE0142C02DB7B
:101790000420009006E00A2C02DB0520009001E006
:1017A000062000907748C07A9DF80010884201D149
:1017B0000020DBE7734A12689178724A5268107809
:1017C0006B46012202F094FE10B14FF0FF30CDE7DE
:1017D0009DF800106B48C1720020C7E738B5044679
:1017E000282C02DD4FF0FF3038BDDCB90020FFF7B8
:1017F00067FD00208DF8000007208DF80100614A88
:101800001268917C5F4A526810786B46022202F09F
:101810006FFE10B14FF0FF30E6E700215948017527
:101820000020E1E70120FFF74BFD20208DF80000AC
:10183000012C06D100208DF801000520FFF78FFF55
:1018400017E0052C06DC01208DF801000520FFF7CC
:1018500086FF0EE0142C06DC02208DF801000A2021
:10186000FFF77DFF05E003208DF801001420FFF74E
:1018700076FF9DF80100072101EB8010C0B28DF8C2
:101880000100404A1268917C3E4A526810786B46CB
:10189000022202F02DFE10B14FF0FF30A4E7082124
:1018A0003848817200210173012101750020FFF782
:1018B00021FF002098E738B504463248807A10B9F5
:1018C0004FF0FF3038BD2F4890F8240010B14FF092
:1018D000FF30F7E72B48007D50B134B1282C04DCF1
:1018E000E0B2FFF77BFF0020ECE70020FFF776FF78
:1018F000042C01DA042404E0B4F57A7F01DD4FF40E
:101900007A744FF47A7090FBF4F0401EC0B20090ED
:101910001C4A126851781B4A526810786B460122A3
:1019200002F0E6FD10B14FF0FF30CBE79DF800006C
:10193000401C4FF47A7191FBF0F081B21148C181E3
:101940000146C9894810FFF70AFF0020BAE738B5F9
:1019500004460C48807A10B94FF0FF3038BD022C95
:1019600006D0042C07D0082C08D0102C0FD10BE087
:10197000002000900EE0082000900BE01020009066
:1019800008E00000BC0000201820009002E04FF0AA
:10199000FF30E3E700BFF948407A9DF80010B0EB54
:1019A000E10F01D10020D9E7F44A1268D179F34A56
:1019B000526810786B46012202F09AFD10B14FF088
:1019C000FF30CBE79DF80000C110EC4841720020C9
:1019D000C4E738B50446E948807A10B94FF0FF30C3
:1019E00038BDFA2C09D0B4F5FA7F09D0B4F57A7F66
:1019F00009D0B4F5FA6F0CD108E0002000900BE09C
:101A00000820009008E01020009005E018200090C9
:101A100002E04FF0FF30E3E700BFD848007A9DF8BE
:101A20000010B0EBE10F01D10020D9E7D34A1268D2
:101A30009179D24A526810786B46012202F058FD23
:101A400010B14FF0FF30CBE79DF80000C010CB493C
:101A500008720020C4E71CB580208DF80000C74A3A
:101A60001268917CC54A526810786B46012202F0D8
:101A70003FFD10B14FF0FF301CBD642003F017FF95
:101A800000208DF80000BD4A1268917CBB4A526864
:101A900010786B46012202F02BFD10B14FF0FF30A1
:101AA000EAE7B64A1268917DB44A526810786B46EC
:101AB000062202F081FD10B14FF0FF30DCE79DF807
:101AC0000500C007400F9DF8031001F0010140EA36
:101AD00041009DF8011001F0010140EA010494B1B8
:101AE000012C03D10121A548C17431E0022C03D19E
:101AF0000021A248C1742BE02146A1A005F09EFF61
:101B00004FF0FF30B8E79D4A1268D1789B4A52687F
:101B100010786B46012202F04FFD10B14FF0FF30FC
:101B2000AAE79DF8000000F00F042CB99E4805F0CC
:101B300085FF4FF0FF309FE7042C06D19BA005F0F6
:101B40007DFF01218D48C17402E000218B48C174E2
:101B5000FF218A488172FF2088490872FF21874847
:101B60004172C1724FF6FF71C181FF21017481740E
:101B70000121017380F82210002180F823104175A3
:101B800001751630016041608160163880F82410BC
:101B900080F82510C1844FF4FA60FFF71AFF10B1E6
:101BA0004FF0FF3068E70220FFF7D1FE10B14FF091
:101BB000FF3061E72A20FFF7D2FD10B14FF0FF3070
:101BC0005AE73220FFF777FE10B14FF0FF3053E7AE
:101BD0000020FFF78FFD10B14FF0FF304CE70020E1
:101BE000FFF706FC10B14FF0FF3045E70020FFF78C
:101BF0009AFB002040E770477CB504460D465F48DD
:101C0000807A00F0700010B94FF0FF307CBD5B4A65
:101C10001268117B594A526810786B46062202F00E
:101C2000CBFC10B14FF0FF30F0E79DF801009DF8BC
:101C3000001040EA012000B220809DF803009DF8CA
:101C4000021040EA012000B260809DF805009DF876
:101C5000041040EA012000B2A08015B12846FFF729
:101C6000CAFF0020D2E77CB504460D464348807A7F
:101C700000F0080010B94FF0FF307CBD3F4A1268F9
:101C8000517B3E4A526810786B46062202F094FC63
:101C900010B14FF0FF30F0E79DF801009DF8001003
:101CA00040EA012000B220809DF803009DF8021058
:101CB00040EA012000B260809DF805009DF8041004
:101CC00040EA012000B2A08015B12846FFF793FF3B
:101CD0000020D2E72DE9FE4F05460C462748807AC2
:101CE00018B94FF0FF30BDE8FE8F244A1268917B8F
:101CF000224A5268107802AB022202F05DFC10B159
:101D00004FF0FF30EFE79DF809009DF8081040EA1A
:101D1000012006B214B12046FFF76DFF174949684C
:101D2000C88807F0F3FB154901904968B1F908002C
:101D300007F0D4FB8346304607F0D0FB59460090AD
:101D400007F034FD8246019907F096FA81461F4953
:101D500007F024FA80464FF08F4107F01FFC07463A
:101D600007F080FB28600020BDE710B588B004466E
:101D70001CB94FF0FF3008B010BD29E0BC000020B6
:101D8000556E737570706F7274656420736F6674CE
:101D9000776172652070726F647563742072657606
:101DA0002025642E0A000000D8AE000848616C6649
:101DB0002073656E736974697669747920706172D5
:101DC0007420666F756E642E0D0A000000000C42D0
:101DD000206830B9606820B9A06810B9002008B048
:101DE00010BDFA494968087806AB0322114602F093
:101DF000E3FB10B14FF0FF30F1E79DF81800082128
:101E000001EB201000F00F00ADF800009DF8190064
:101E100001EB201000F00F00ADF802009DF81A0051
:101E200001EB201000F00F00ADF804002068410025
:101E3000BDF90000403091FBF0F000B2ADF81000A9
:101E400060684100BDF90200403091FBF0F000B243
:101E5000ADF81200A0684100BDF90400403091FBCC
:101E6000F0F000B2ADF81400D8494968087806AB24
:101E70000622114602F0A0FB10B14FF0FF30AEE792
:101E80009DF819009DF8181040EA012000B2ADF845
:101E900008009DF81B009DF81A1040EA012000B2CE
:101EA000ADF80A009DF81D009DF81C1040EA0120C5
:101EB00000B2ADF80C00BDF81000BDF808100844E1
:101EC00000B2ADF81000BDF81200BDF80A100844C9
:101ED00000B2ADF81200BDF81400BDF80C100844B3
:101EE00000B2ADF81400BDF81000000A8DF818001B
:101EF000BDF81000C0B28DF81900BDF81200000A3C
:101F00008DF81A00BDF81200C0B28DF81B00BDF8A4
:101F10001400000A8DF81C00BDF81400C0B28DF842
:101F20001D00AA494968087806AB0622114602F04E
:101F3000DFFA10B14FF0FF3051E700204FE70146C4
:101F4000A248007A30B1012807D0022809D003281E
:101F50000FD10AE0FA2008800EE04FF4FA700880F2
:101F60000AE04FF47A70088006E04FF4FA600880C7
:101F700002E00020088000BF00BF0020704701463B
:101F80009248407A30B1012807D0022808D00328AF
:101F90000CD108E0022008700BE00420087008E073
:101FA0000820087005E01020087002E04FF0FF30B4
:101FB000704700BF8548C07C18B108784006000E05
:101FC00008700020F4E701468048C07A082817D23C
:101FD000DFE800F01704070A0D101318BC20088072
:101FE00013E06220088010E02A2008800DE0142011
:101FF00008800AE00A20088007E00520088004E045
:1020000000BF00BF0020088000BF00BF0020704755
:1020100001466E4890F8240010B14FF0FF30704731
:102020006A48C08908800020F9E70146002008803E
:10203000401E704701464FF0FF307047014663482D
:10204000007A30B1012807D0022808D003280CD12B
:1020500008E05F4808600BE05E48086008E05E4802
:10206000086005E05D48086002E04FF0FF3070470F
:1020700000BF0020FBE701465448407A30B10128F8
:1020800008D002280AD0032810D10BE04FF480407A
:1020900008800EE041F69C7008800AE04FF4805002
:1020A000088006E04FF40060088002E04FF0FF3047
:1020B000704700BF4548C07C10B1088840100880B8
:1020C0000020F5E701464148007C08700020704779
:1020D00001463E48807A10B10120087001E00020DE
:1020E00008700020704738B504463848807A10B927
:1020F0004FF0FF3038BD354A1268117C334A5268C0
:1021000010786B46022202F057FA10B14FF0FF3000
:10211000F0E79DF801009DF8001040EA012000B2B0
:1021200020800020E6E72DE9FE4F074688469246CC
:102130001D46DDF830B000260024244890F8240025
:1021400010B1601EBDE8FE8F002028701F48807A05
:1021500010B94FF0FF30F5E71C48007C10B94FF084
:10216000FF30EFE71948007C00F0400008B1B01CD8
:10217000C6B21648007C00F0200008B1B01CC6B200
:102180001248007C00F0100008B1B01CC6B20F4825
:10219000007C00F0080008B1B01DC6B20B4A1268FE
:1021A000917A0A4A526810786B46022202F004FAC9
:1021B00010B14FF0FF30C5E79DF801009DF8001009
:1021C00040EA0129B1450BDA0020BBE7BC00002042
:1021D000000003430000834233330342333383411F
:1021E000FC4840684088B9EB600F17DDF94A126877
:1021F000517CF84A526810786B46012202F0DCF9F3
:1022000010B14FF0FF309DE79DF8000000F0100086
:1022100020B1FFF791F96FF0010093E75046FFF707
:10222000EAFCEC4A1268D17AEA4A526810786B46A6
:10223000324602F0C1F910B14FF0FF3082E799FB4E
:10224000F6F0401E8BF8000000202870B4422AD01F
:10225000E048007C00F0080028B3601C1DF8000076
:102260001DF8041040EA012000B2A8F80000E01CAC
:102270001DF80010A01C1DF8000041EA002000B26B
:10228000A8F80200601D1DF80010201D1DF80000B8
:1022900041EA002000B2A8F80400287840F00800C5
:1022A0002870A01D84B2B44213D0CA48007C00F04C
:1022B000400070B1601C1DF800001DF8041040EAD9
:1022C000012000B23880287840F040002870A01C1F
:1022D00084B2B44213D0BF48007C00F0200070B13B
:1022E000601C1DF800001DF8041040EA012000B237
:1022F0007880287840F020002870A01C84B2B44276
:1023000013D0B448007C00F0100070B1601C1DF8C0
:1023100000001DF8041040EA012000B2B8802878BF
:1023200040F010002870A01C84B200200AE7F8B525
:1023300004460F461646A74890F8240010B94FF0FF
:10234000FF30F8BDA348807A10B94FF0FF30F8E7AE
:10235000A04A1268917A9F4A526810786B4602220E
:1023600002F02AF910B14FF0FF30EAE79DF80100C2
:102370009DF8001040EA0125A54203DA00203070E4
:10238000401EDEE7934840684088B5EB600F17DDDC
:10239000904A1268517C8F4A526810786B4601222D
:1023A00002F00AF910B14FF0FF30CAE79DF80000C3
:1023B00000F0100020B1FFF7BFF86FF00100C0E798
:1023C000E2B2844B1B68D97A824B5B6818783B4633
:1023D00002F0F2F810B14FF0FF30B2E795FBF4F0E5
:1023E000401E30700020ACE701467A4880F8221089
:1023F000002070477CB5054676494968087801ABEE
:1024000004220D2102F0D8F808B107207CBD9DF808
:102410000700C0F301109DF8041001F0E00140EA4C
:10242000E1008DF800009DF80700C0F381009DF8E1
:10243000051001F0E00140EAE1008DF801009DF88F
:10244000070000F003009DF8061001F0E00140EAEB
:10245000E1008DF8020000241CE01DF8040018B90A
:10246000002045F8240013E05B4845F8240006E00E
:1024700055F82400594907F091F845F824001DF853
:102480000400401EC0B20DF804000028F0D100BFC7
:10249000601CC4B2032CE0DB0020B7E72DE9FE4F3F
:1024A00006460F4600256846FFF7A4FF002442E0D9
:1024B00056F8240057F82410A0EB010ABAF1000FD7
:1024C00001DB514601E0CAF10001084607F006F8B9
:1024D00083464FF08F4106F0CFFE80465DF8240022
:1024E000002106F08BFF16D05DF82410404606F060
:1024F000C3FE82464FF07E5107F058F9814629F01D
:10250000004A3748416A504607F014F912D20120B8
:10251000A04005430EE03248C169404607F00AF882
:1025200005D32F48016A404607F004F902D2012082
:10253000A0400543641C032CBADB2846BDE8FE8F8F
:102540002DE9FC5F06460F460025224949680878B8
:1025500001AB03220D2102F02FF810B10720BDE8D6
:10256000FC9F9DF8040000F01F008DF804009DF80A
:10257000050000F01F008DF805009DF8060000F032
:102580001F008DF80600002462E056F8240057F87A
:102590002410A0EB010BBBF1000F01DB594601E059
:1025A000CBF10001084606F099FF4FF08F410090F3
:1025B00006F062FE814601A8005DC0B308490868C4
:1025C00006F0A4FF83465946064806F055FE8046AD
:1025D0000FE00000BC0000207B14AE3E1D5A843F7B
:1025E000B099000800B04C45FE49404606F0D6FFC1
:1025F000804601A8005D401EC0B201A90855002810
:10260000F2D14146484606F037FE83464FF07E51F0
:1026100007F0CCF882462AF0004BF348816958460F
:1026200007F088F813D20120A04005430FE0FFE730
:10263000ED480169484606F07DFF05D3EA48416947
:10264000484607F077F802D20120A0400543641CF9
:10265000032C9ADB284682E72DE9F04F87B0054628
:102660000C46914601208DF8100000208DF81100D5
:10267000DE4A1268917CDD4A5268107804AB02226F
:1026800001F036FF20B14FF0FF3007B0BDE8F08F0A
:10269000C82003F00CF900208DF81000D34A12680E
:1026A000D17BD24A5268107804AB012201F020FF9E
:1026B00010B14FF0FF30E8E7CC4A12685179CB4AAD
:1026C0005268107804AB012201F012FF10B14FF0F4
:1026D000FF30DAE7C54A1268917CC44A5268107824
:1026E00004AB012201F004FF10B14FF0FF30CCE742
:1026F000BE4A1268D17DBD4A5268107804AB0122EF
:1027000001F0F6FE10B14FF0FF30BEE7B74A126895
:102710001179B64A5268107804AB012201F0E8FE44
:1027200010B14FF0FF30B0E70C208DF81000AF4A29
:1027300012681179AD4A5268107804AB012201F099
:10274000D7FE10B14FF0FF309FE70F2003F0AFF836
:10275000A648806A407A8DF81000A44A12689178E1
:10276000A24A5268107804AB012201F0C1FE10B1F8
:102770004FF0FF3089E79D48806A007A8DF810009D
:102780009A4A12685178994A5268107804AB01222B
:1027900001F0AEFE10B14FF0FF3076E7B9F1000F57
:1027A00007D09248806A807A40F0E0008DF81000EF
:1027B00004E08E48806A807A8DF810008B4A126897
:1027C00091798A4A5268107804AB012201F090FE98
:1027D00010B14FF0FF3058E7B9F1000F07D0834830
:1027E000806AC07A40F0E0008DF8100003E07E4877
:1027F000C07A8DF810007D4A1268D1797B4A526800
:10280000107804AB012201F073FE10B14FF0FF30DD
:102810003BE7B9F1000F02D0C82003F048F8402090
:102820008DF81000714A12681179704A5268107858
:1028300004AB012201F05CFE10B14FF0FF3024E741
:1028400078208DF81000694A12685179674A5268F9
:10285000107804AB012201F04BFE10B14FF0FF30B5
:1028600013E76149888903F022F800208DF81000F1
:102870005E4A126851795D4A5268107804AB0122B1
:1028800001F036FE10B14FF0FF30FEE6574A1268F5
:10289000917A564A5268107804AB022201F08CFEFD
:1028A00010B14FF0FF30F0E69DF811009DF81010C8
:1028B00040EA012B0C209BFBF0F0C6B20020A86080
:1028C00068602860A06060602060824665E0474ADA
:1028D0001268D17A454A5268107804AB0C2201F094
:1028E0006BFE10B14FF0FF30CFE69DF811009DF860
:1028F000101040EA012000B2ADF808009DF8130066
:102900009DF8121040EA012000B2ADF80A009DF8CF
:1029100015009DF8141040EA012000B2ADF80C003B
:10292000BDF90810206808442060BDF90A106068ED
:1029300008446060BDF90C10A0680844A0609DF8D0
:1029400017009DF8161040EA012000B2ADF8000013
:102950009DF819009DF8181040EA012000B2ADF86A
:1029600002009DF81B009DF81A1040EA012000B2F9
:10297000ADF80400BDF90010286808442860BDF9CE
:102980000210686808446860BDF90410A86808442B
:10299000A8600AF1010000F0FF0AB24597DB124877
:1029A000D0F800C02868C117090441EA10410704A3
:1029B00062460023384605F01DF832460023CDE973
:1029C000020105F017F828600748D0F800C06868D1
:1029D000C117090441EA1041070462460023384642
:1029E00006E0000054E3853FB0990008BC000020D9
:1029F00005F000F832460023CDE9020104F0FAFFA9
:102A00006860FE48D0F800C0A868C117090441EA10
:102A10001041070462460023384604F0EBFF3246BB
:102A20000023CDE9020104F0E5FFA860F348D0F8E7
:102A300004C02168C817000440EA11480F04624628
:102A400000233846414604F0D5FF32460023CDE945
:102A5000020104F0CFFF2060E848D0F804C06068AD
:102A6000C117090441EA10410704624600233846B1
:102A700004F0C0FF32460023CDE9020104F0BAFFA2
:102A80006060DE48D0F804C0A068C117090441EABC
:102A90001041070462460023384604F0ABFF32467B
:102AA0000023CDE9020104F0A5FFA060A068002882
:102AB00004DDA068A0F58030A06003E0A06800F508
:102AC0008030A0600020E0E538B50446CC4890F89E
:102AD0002400A04201D1002038BD24B3C84890F89A
:102AE000250010B94FF0FF30F6E70020FEF75EFB3F
:102AF0000020FEF77DFCC249C88CFEF7DCFE0020FA
:102B00000090BF49496808786B460122232101F0F3
:102B1000EFFC0121BA4880F824100120FEF746FBA3
:102B2000FEF70AFD13E00020FEF740FBB448007CEE
:102B30000090B349496808786B460122232101F0CF
:102B4000D7FC0021AE4880F82410FEF7F5FC0020E9
:102B5000C2E72DE9F04F8DB083460F4602200C905E
:102B6000A74890F8240020B10020FFF7ADFF012610
:102B700000E0002603A8FFF7E2F905A8FFF7FFF938
:102B800001A8FFF720FA02A8FFF742FA9C4890F844
:102B90000AA004A8FFF796FA002407E000223946AD
:102BA0005846FFF759FD00B902E0641C022CF5DB22
:102BB00000BF022C01D1002528E0002407E00122FB
:102BC00006A909A8FFF748FD00B902E0641C022C21
:102BD000F5DB00BF022C01D1002517E006A938461D
:102BE000FFF75CFC00F0FF0809A95846FFF7A8FCB6
:102BF00000F0FF090025B9F1000F01D145F00105F2
:102C0000B8F1000F01D145F0020500BFFF207C495B
:102C10000872FF217A484172C1724FF6FF71C1817B
:102C2000FF218172017401210173BDF80C00FEF7D0
:102C3000D0FE9DF81400FEF78AFEBDF80400FEF7F2
:102C40008EFDBDF80800FEF736FE5046FEF76BFB22
:102C50009DF81000FEF74EFD16B10120FFF734FF7E
:102C600028460DB0BDE8F08FF8B504460D4616466F
:102C700016B94FF0FF30F8BD6148807A10B94FF0B7
:102C8000FF30F8E720128DF80000E0B28DF8010067
:102C90009DF8010028445A4949684989884202DD63
:102CA0004FF0FF30E7E7564A1268117E544A5268E7
:102CB00010786B46022201F01BFC10B14FF0FF3080
:102CC000D9E7EAB24E4B1B68597D4D4B5B681878CB
:102CD000334601F00DFC10B14FF0FF30CBE7002080
:102CE000C9E7F8B504460D46164616B94FF0FF3051
:102CF000F8BD4348807A10B94FF0FF30F8E7201252
:102D00008DF80000E0B28DF801009DF80100284424
:102D10003B4949684989884202DD4FF0FF30E7E7C7
:102D2000374A1268117E364A526810786B46022282
:102D300001F0DEFB10B14FF0FF30D9E7EAB2304BC3
:102D40001B68597D2E4B5B681878334601F034FCC4
:102D500010B14FF0FF30CBE70020C9E72DE9F04379
:102D600085B005460E4690469946254890F82500C0
:102D700020B14FF0FF3005B0BDE8F08316B94FF039
:102D8000FF30F8E7002423E0281B102801DD102085
:102D900000E0281B87B2321939462046FFF764FF4E
:102DA00010B14FF0FF30E6E701AA39462046FFF7A1
:102DB00098FF10B14FF0FF30DDE730193A4601A916
:102DC00004F0B8FE10B16FF00100D4E7E01984B24E
:102DD000AC42D9DB4FEA28208DF8000008F0FF0054
:102DE0008DF80100064A1268917E054A52681078F3
:102DF0006B46022201F07CFB38B103E0B099000879
:102E0000BC0000204FF0FF30B5E701218A4880F870
:102E10002510A0F826900020ADE70146864890F8DE
:102E2000240008700020704702464FF0FF307047C2
:102E300001464FF0FF307047F8B505460F4614467F
:102E4000002C70D0B5F5FF5F01DDFF2605E0202DD9
:102E500001DA012601E0C5F3471607B90127282C3E
:102E600002DD4FF0FF30F8BD7348407D28BB72484B
:102E700090F8240038B10020FFF726FE01216E48AB
:102E800080F8201003E000216B4880F820106A4889
:102E90001630FFF754F868481830FFF770F86648A6
:102EA0001A30FFF790F864481C30FFF7B1F8624819
:102EB000817A81771F30FFF705F90020FEF776F958
:102EC0000020FEF78BFC00208DF800005A4A1268A3
:102ED0009178594A526810786B46012201F008FB3C
:102EE00010B14FF0FF30BEE740208DF80000524A8D
:102EF0001268D17B504A526810786B46012201F06B
:102F0000F7FA00B165E08DF800608DF801704A4A6B
:102F10001268117A484A526810786B46022201F012
:102F2000E7FA08B155E047E0052002F0C0FC42484E
:102F3000407A072101EBC000C0B28DF800003E4A84
:102F40001268D1793C4A526810786B46012201F030
:102F5000CFFA00B13DE020208DF80000012C03D114
:102F600000208DF801000EE0052C03DC01208DF817
:102F7000010008E0142C03DC02208DF8010002E0BF
:102F800003208DF801009DF80100072101EB80105E
:102F9000C0B28DF80100284A1268917C264A526816
:102FA00010786B46022201F0A3FA00B111E0012172
:102FB00021484175002056E71F4A1632002103E0E0
:102FC000505C00B105E0491C0C29F9D34FF0FF30EB
:102FD00049E7FF2018490872FF2117484172C17262
:102FE0004FF6FF71C181FF218172017401210173CC
:102FF0000146887FFEF797F90F49C88AFEF7E9FC7A
:103000000D49087EFEF7A3FC0B49488BFEF7A7FB92
:103010000949888BFEF74FFC0749C87FFEF76AFB1A
:10302000054890F8200010B10120FFF74DFD002168
:1030300001484175002016E7BC00002010B5C823E8
:103040004FF48062F74940F6F630FFF787FE10BD77
:1030500010B586B00446F4A000680390F3A00068A1
:103060000290F3A000680190F2A00068009004F0C4
:10307000030003A9085C8DF8140003A8C4F3C10180
:10308000405C8DF8150003A8C4F38111405C8DF8F5
:10309000160004F0030002A9085C8DF8100002A8D5
:1030A000C4F3C101405C8DF8110002A8C4F3811182
:1030B000405C8DF8120005AA032140F22640FFF77C
:1030C000D3FD18B14FF0FF3006B010BD04AA0321A4
:1030D00040F22A40FFF7C8FD10B14FF0FF30F3E790
:1030E000019805900098049004F0040058B19DF8F0
:1030F000140040F001008DF814009DF8100040F01D
:1031000001008DF8100004F0200058B19DF8150062
:1031100040F001008DF815009DF8110040F001000D
:103120008DF8110004F4807058B19DF8160040F03D
:1031300001008DF816009DF8120040F001008DF896
:10314000120005AA03214FF48860FFF78DFD10B12E
:103150004FF0FF30B8E704AA032140F23140FFF7F7
:1031600083FD10B14FF0FF30AEE7B348048100207B
:10317000AAE71FB50446B048007A00F0030054F8EF
:1031800020000190AC48007A00F0040010B10198D2
:1031900040420190A848007AC0F3C10054F82000D2
:1031A0000290A548007A00F0200010B10298404239
:1031B0000290A148007AC0F3811054F820000390D7
:1031C0009D48008900F4807010B10398404203903C
:1031D0009A49019880FB0101800F40EA810001902B
:1031E0009649029880FB0110820042EA9170029099
:1031F0009249039880FB0110820042EA917003908B
:103200000198000E8DF800000198000C8DF8010067
:103210000198000A8DF802000198C0B28DF80300F1
:103220006A4604214FF47470FFF71EFD18B14FF089
:10323000FF3004B010BD0298000E8DF80000029817
:10324000000C8DF801000298000A8DF80200029827
:10325000C0B28DF803006A4604214FF47570FFF781
:1032600003FD10B14FF0FF30E3E70398000E8DF837
:1032700000000398000C8DF801000398000A8DF8F7
:1032800002000398C0B28DF803006A4604214FF48F
:103290007670FFF7E9FCCCE770B588B0064601A868
:1032A000FEF7E9FEBDF804000021C90341EA5045DC
:1032B000C4036148007A00F0030056F8200005902E
:1032C0005D48007A00F0040010B105984042059076
:1032D0005948007AC0F3C10056F8200006905648BD
:1032E000007A00F0200010B1069840420690524843
:1032F000007AC0F3811056F8200007904E480089EC
:1033000000F4807010B10798404207900598C117EB
:10331000A0FB042301FB043100FB0510810041EAFE
:10332000927005900698C117A0FB042301FB04319D
:1033300000FB0510810041EA927006900798C117C2
:10334000A0FB042301FB043100FB0510810041EACE
:10335000927007900598000E8DF808000598000CF3
:103360008DF809000598000A8DF80A000598C0B28A
:103370008DF80B000698000E8DF80C000698000CD6
:103380008DF80D000698000A8DF80E000698C0B260
:103390008DF80F000798000E8DF810000798000CAC
:1033A0008DF811000798000A8DF812000798C0B236
:1033B0008DF8130002AA0C214FF42570FFF754FC7E
:1033C00008B070BD30B585B004461DA207CA02AB77
:1033D00007C3C82C03DD4FF0FF3005B030BDC82057
:1033E00090FBF4F0401E85B2280A8DF80000E8B288
:1033F0008DF801006A46022140F21620FFF734FCE6
:1034000010B14FF0FF30E8E702AA0C2140F6C120CE
:10341000FFF72AFC10B14FF0FF30DEE70648848149
:103420000020DAE7D89900084CCD6C000CC92C00BC
:103430003656760026466600C806002009E3CA0212
:10344000FEF2ABC4AAF1DFDFBBAFDFDF0146FC4811
:1034500080890880002070472DE9FC4706460F460A
:1034600006F0070010B1B7F5C86F03DD4FF0FF306D
:10347000BDE8FC87384606F049F88146F14905F079
:10348000FBFE80466846FEF77AFD9DF800000228A4
:1034900006D0042816D0082826D0102848D135E0B8
:1034A0004FF08D41404606F079F8814605F0F6FF71
:1034B00084B2E549404606F071F8814605F0EEFF1A
:1034C00085B238E04FF08C41404606F067F88146FF
:1034D00005F0E4FF84B2DD49404606F05FF881461E
:1034E00005F0DCFF85B226E04FF08B41404606F048
:1034F00055F8814605F0D2FF84B2D549404606F022
:103500004DF8814605F0CAFF85B214E04FF08A41BC
:10351000404606F043F8814605F0C0FF84B2CD492D
:10352000404606F03BF8814605F0B8FF85B202E060
:103530004FF0FF309CE700BF20128DF80400E0B28E
:103540008DF8050028128DF80600E8B28DF8070006
:1035500006F00100A0B101AA02214FF4EA70FFF7C2
:1035600083FB10B14FF0FF3082E70DF1060202211C
:103570004FF49270FFF778FB10B14FF0FF3077E710
:1035800006F00200A0B101AA02214FF4EC70FFF78F
:103590006BFB10B14FF0FF306AE70DF1060202211C
:1035A0004FF49470FFF760FB10B14FF0FF305FE70E
:1035B00006F00400A0B101AA02214FF4EE70FFF75B
:1035C00053FB10B14FF0FF3052E70DF1060202211C
:1035D0004FF49670FFF748FB10B14FF0FF3047E70C
:1035E000002045E738B504460020009004F00100B3
:1035F00020B19DF8000040F03000009004F002007F
:1036000020B19DF8000040F00C00009004F0040090
:1036100020B19DF8000040F0030000906A460121AF
:103620004FF4A470FFF720FB38BD38B50446012CD9
:1036300001DA012402E0042C00DD0424601EC0B283
:1036400000906A46012140F24F10FFF70DFB38BD94
:1036500038B50446052094FBF0F085B228128DF8A9
:103660000000E8B28DF801006A4602214FF4EF70C5
:10367000FFF7FAFA38BD38B50446052094FBF0F0A0
:1036800085B228128DF80000E8B28DF801006A4674
:1036900002214FF4ED70FFF7E7FA38BDF8B50546A3
:1036A0000E464FF47A7095FBF0F000FB06F4200E06
:1036B0008DF80000200C8DF80100200A8DF8020022
:1036C000E0B28DF803006A4604214FF4AE70FFF7B4
:1036D000CBFAF8BD38B50446052094FBF0F084B26F
:1036E00020128DF80000E0B28DF801006A46022138
:1036F0004FF4AD70FFF7B8FA38BD38B50446052071
:1037000094FBF0F084B220128DF80000E0B28DF846
:1037100001006A4602214FF4AC70FFF7A5FA38BDEC
:1037200038B5044614B94FF0FF3038BD6A4604215D
:103730004FF45870FFF7D5FA10B14FF0FF30F4E7AF
:103740009DF8000000069DF8011040EA01409DF838
:10375000021040EA01209DF8031008432060002079
:10376000E3E738B50446200E8DF80000200C8DF8F4
:103770000100200A8DF80200E0B28DF803006A46CD
:1037800004214FF45870FFF76FFA38BD38B504467E
:1037900014B94FF0FF3038BD6A4604214FF4717000
:1037A000FFF79FFA10B14FF0FF30F4E79DF80000EB
:1037B00000069DF8011040EA01409DF8021040EA21
:1037C00001209DF80310084300EB8000800020607A
:1037D0000020E0E738B504461420B4FBF0F4200ED6
:1037E0008DF80000200C8DF80100200A8DF80200F1
:1037F000E0B28DF803006A4604214FF47170FFF7C0
:1038000033FA38BD38B5044664B120208DF8000085
:1038100028208DF8010030208DF8020038208DF826
:10382000030004E0A3220421684604F0AFF96A46CD
:10383000042140F69E20FFF717FAFDF77DFE38BD04
:10384000C806002000004843000040460000C04574
:10385000000040450000C04438B5044664B1C020B3
:103860008DF80000C2208DF80100C4208DF8020000
:10387000C6208DF8030004E08B220421684604F082
:1038800085F96A46042140F69820FFF7EDF9FDF727
:1038900053FE38BD3EB504466CB1FDA1D1E9002010
:1038A0008968CDE9002002916A4609214FF49760AA
:1038B000FFF7DAF93EBDF9A2D2E900109268CDE92E
:1038C000010200916A4609214FF49760FFF7CCF995
:1038D000F0E73EB5044602208DF80000CA208DF8BE
:1038E0000100E3208DF8020009208DF803006A46EC
:1038F00004216820FFF7B8F9A3208DF8000004F038
:10390000400048B1C0208DF80100C8208DF80200A9
:10391000C2208DF8030006E0A3208DF801008DF889
:1039200002008DF8030004F4C07048B1C4208DF883
:103930000400CC208DF80500C6208DF8060006E0B6
:10394000A3208DF804008DF805008DF80600A32053
:103950008DF807008DF808008DF809006A460A21E5
:1039600040F6A720FFF780F904F0030018B12020EB
:103970008DF8000002E0D8208DF800006A46012191
:1039800040F6B620FFF770F904F0200018B10120CE
:10399000FFF780FF02E00020FFF77CFF04F4C07017
:1039A00008B304F4807060B1B2208DF800008B2061
:1039B0008DF80100B6208DF802009B208DF80300E1
:1039C0000BE0B0208DF8000080208DF80100B420BD
:1039D0008DF8020090208DF803006A46042140F61D
:1039E000A220FFF741F904F0010020B3F8208DF880
:1039F00000006A4601214FF40B60FFF735F9FA2108
:103A00000720FFF729FD0720FFF7ECFD0120FFF756
:103A10000CFE6420FFF71CFE4FF4FA70FFF72BFE3C
:103A2000C821A148FFF73AFE2820FFF753FE0A20DD
:103A3000FFF763FE08E0D8208DF800006A460121F8
:103A40004FF40B60FFF710F904F0020018B1D92011
:103A50008DF8000002E0D8208DF800006A460121B0
:103A600040F23D70FFF700F904F0040018B10120A6
:103A7000FFF7F2FE02E00020FFF7EEFE04F0100078
:103A800018B10120FFF7BEFE02E00020FFF7BAFEEA
:103A900044F0080085494881FDF74EFD0020834928
:103AA000887304F0400018B10846807B801D88733D
:103AB00004F4C07020B17D48807B801D7B498873F1
:103AC00004F0140020B17948807B10307749887366
:103AD00004F0030020B17548807B001D7349887392
:103AE00000203EBD01467148408908800020704793
:103AF0002DE9F0410446E07800F0C006E07800F0DF
:103B00003F05607800F0010098B1EF102846E917F2
:103B100005EB5171C910A5EBC101491C01F0FF086B
:103B20006248006820B161484146026838469047C3
:103B300000BF607800F0080030B15C48406818B100
:103B4000B0115A4A516888470020BDE8F08110B58D
:103B500086B0044656A207CA03AB07C357A207CADA
:103B60008DE80700012C09D0022C0ED103AA0B21ED
:103B700040F68220FFF778F806B010BD6A460B21A8
:103B800040F68220FFF770F8F6E74FF0FF30F3E7DA
:103B90002DE9F04F8DB00746884615469946DDE978
:103BA000166B0024002030804049887B5A4605A9C6
:103BB000FEF7BDFB18B1601E0DB0BDE8F08F3B48AD
:103BC000807A00F01400002861D09DF814000006EF
:103BD0009DF8151040EA01409DF8161040EA0120BA
:103BE0009DF81710084328609DF8180000069DF8FE
:103BF000191040EA01409DF81A1040EA01209DF892
:103C00001B10084368609DF81C0000069DF81D10FD
:103C100040EA01409DF81E1040EA01209DF81F1067
:103C20000843A8609DF8200000069DF8211040EA96
:103C300001409DF8221040EA01209DF8231008431E
:103C4000E86004F11000C4B22868001401906868AC
:103C500000140290A86800140390E868001404900F
:103C600001984043029901FB0100039901FB010007
:103C7000049901FB010ABAF1706F02DBBAF1885FA7
:103C800022DDFDF759FC00203080401E94E721E042
:103C9000B8AAB38DB4980D355D000000B8AAAAAAE1
:103CA000B088C3C5C700000009E3CA02C8060020E7
:103CB000D8B1B9F38BA391B609B4D900DAB1B9F38D
:103CC0008BA391B6DAB4DA00B6F9000040F4807044
:103CD000308000BF3448807A00F0400020B305A94E
:103CE000601C085C095D40EA012000B2A8F80000F1
:103CF00005A9E01C095C05AAA01C105C41EA002093
:103D000000B2A8F8020005A9601D095C201D105C26
:103D100041EA002000B2A8F80400A01DC4B2B6F920
:103D2000000040F0080030801F48408900F4C07057
:103D300008B305A9601C085C095D40EA012000B2D7
:103D4000388005A9E01C095C05AAA01C105C41EAAA
:103D5000002000B2788005A9601D095C201D105C60
:103D600041EA002000B2B880A01DC4B2B6F900003C
:103D700040F0700030800C48807A00F0030018B1E9
:103D800005A90819FFF7B4FE4846FDF734FF0020E7
:103D900012E70146044801600020704701460248CE
:103DA0004160002070470000C806002000B587B0C1
:103DB0000121084602F0FFF90121042002F0EEF98A
:103DC0000320ADF8000004208DF803006946614827
:103DD00001F028FF04A802F045FE0020ADF8100015
:103DE0004FF6FF70ADF814000020ADF81600ADF8E6
:103DF000120004A94FF0804002F008FB00231A468D
:103E000003214FF0804002F010FF01A802F03DFEB8
:103E10000A20ADF80C0001A9400702F08AFD01213B
:103E2000880703F015F901221146900702F065FE9C
:103E300000214FF0804003F0D9F80121880702F0FB
:103E400041FE07B000BD00B587B00121042002F09B
:103E5000B2F90121082002F0A1F9C020ADF800005C
:103E600004208DF8030069463B4801F0DBFE04A8FE
:103E700002F0F8FD0020ADF810004FF6FF70ADF82D
:103E800014000020ADF81600ADF8120004A9334864
:103E900002F0BCFA00231A460321304802F0C5FEA6
:103EA00001A802F0F2FD0A20ADF80C0001A92B4890
:103EB00002F03FFD0121294803F0CAF80122114612
:103EC000264802F01AFE0021244803F08FF8012151
:103ED000224802F0F7FD07B000BD0146022904D0D8
:103EE00003290BD0042919D10FE04FF08042928CA6
:103EF00010B200224FF080439A8411E0184A1288D1
:103F000010B20022164B1A800AE0144A243212889A
:103F100010B20022114B24331A8001E0002000BFB0
:103F200000BF70470D48103000880C4810300088E2
:103F300020F0010009491031088070474FF080409F
:103F4000008A4FF08040008A20F001004FF080414D
:103F50000882704700080140000C01400008004042
:103F6000240400401FB50121084602F017F9012181
:103F7000082002F013F92020ADF80C0048208DF83D
:103F80000F0003A9114801F04DFE0521012001F0A9
:103F90005FFF2020019000208DF808000C208DF894
:103FA000090001208DF80A0001A803F07BFA172010
:103FB0008DF8000002208DF8010001208DF802002C
:103FC0008DF80300684601F064FD1FBD000C014040
:103FD0002DE9F04105460C46AA480168204605F047
:103FE000E5FB0746A8480168384605F0D7FA0646BB
:103FF000A6480168304605F0D1F8A4490860A448F5
:104000004168A448006805F0D1FB0646A0488168D5
:10401000304605F0CBFBA04908609D48C06880F0A1
:10402000004048609A48C06880F0004088609B4823
:104030000068C86008689449096805F0AFFA064648
:1040400093480168304605F0A9F891490860924903
:1040500048688D49096805F0A1FA06468C48416810
:10406000304605F09BF88A4948608B498868864944
:10407000096805F093FA064685488168304605F0E0
:104080008DF8834988608449C8687F49096805F0CC
:1040900085FA06467E48C168304605F07FF87C49BF
:1040A000C8607A480168284605F080FB7C490860B2
:1040B0007C48007805F02AFA0646754801683046C3
:1040C00005F06CFA784908607648007805F01EFA29
:1040D00006466F488168304605F060FA734908600B
:1040E0007048007805F012FA07466F4801683846B4
:1040F00005F054FA06466E480168304605F04EF861
:104100006C490860084601686748006805F0B4F823
:1041100069490860674801686448006805F0ACF8C0
:104120006649086060480068654908605D48007835
:1041300005F0ECF9064656484168304605F02EFA7F
:10414000604908605E4801685B48006805F026FA2F
:1041500006464F480168304605F01DFB4C49086093
:10416000584801685448006805F018FA064648485F
:104170004168304605F00FFB4549486050480168EA
:104180004E48006805F00AFA064641488168304604
:1041900005F001FB3E4988604A48016847480068CD
:1041A00005F0FCF906463A48C168304605F0F3FAD6
:1041B0003749C8603A4801683F48006805F0EEF9A1
:1041C000064632480168304604F0E8FF2F4908608F
:1041D000334801683948006805F0E0F90646294887
:1041E0000168304604F0DAFF264908600846016895
:1041F000204605F0DBFA34490860BDE8F0812DE97E
:10420000F04F8BB083468A46504604F09BFF8046B1
:104210002E4A2F4B04F0BCFCCDE902011B4800687C
:1042200004F090FFCDE90001DDE9022304F01EFA5D
:1042300004460D46274801684FF07E5005F0B6FA57
:10424000804604F07FFF064622462B4604F0A0FC81
:10425000CDE906011F480168584605F09FF904465C
:1042600004F070FFCDE90401DDE9062304F0FEF956
:10427000CDE9080104F0C8F9044908600BB0BDE8B5
:10428000F08F00000801002000010020EC00002059
:104290002C010020F4000020D8060020F8000020A7
:1042A0000C01002004010020100100201401002056
:1042B000FC000020180100201C010020200100202B
:1042C0002401002028010020F00000207B14AE47CC
:1042D000E17A743FE800002008B50121082001F0D0
:1042E0005DFF4FF44070ADF8000010208DF8030022
:1042F00003208DF802006946F74801F093FC08BDE1
:1043000010B5F548001D006820F0F000F249091DC5
:1043100008600846006840F0300008600120EF495E
:104320000860EF48D0F8240108B9002010BD012032
:10433000EA49091F086001F096FA0020E849C1F82F
:10434000A401E6488038006808B10020EEE70120AB
:1043500001F089FA0020E149091F08600120E5E722
:1043600010B5DD48001D006820F0F000DA49091D95
:1043700008600846006840F0300008600020D74917
:10438000091F0860D649C1F8A401012001F06BFAA9
:104390000120D249091F0860D149C1F8A40101F0E8
:1043A00062FA10BD10B50024CB48001D006820F053
:1043B000F000C949091D08600846006840F0800007
:1043C00008600120C549086001F04DFA0120C44988
:1043D000C1F8A00101F047FA0AE0601CC4B2322C17
:1043E00003DDFFF7BDFF002010BD012001F03BFA07
:1043F000BA48803800680028EFD1B849091F086022
:104400000120F1E710B50020B449091F0860B24847
:10441000001D006820F0F000AF49091D0860084643
:10442000006840F0300008600020AD49C1F8A401E8
:10443000012001F018FA0120A849091F086001F0C5
:1044400012FA0020A649C1F8A00110BD10B5002045
:10445000A249091F0860A048001D006820F0F00074
:104460009D49091D08600846006840F0300008605A
:1044700001209B49C1F8A40101F0F5F901209749F9
:10448000091F086001F0EFF900209549C1F8A0016B
:1044900010BD70B504469048001D006820F0F00083
:1044A0008D49091D08600846006840F0300008602A
:1044B00000208A49091F0860002516E0E0098749A5
:1044C00008606006040E012001F0CDF90120844946
:1044D000C1F8A00101F0C7F900208049091F086058
:1044E000012001F0C0F9681CC5B2082DE6DB70BDE3
:1044F0002DE9F04105460E4617469846FFF700FFA6
:1045000010B90120BDE8F0816906080EFFF7C1FF70
:10451000FFF748FF18B9FFF723FF0120F2E7304605
:10452000FFF7B7FFFFF73EFF00240BE018F8040089
:10453000FFF7AFFFFFF736FF18B9FFF711FF0020B5
:10454000E0E7641CBC42F1DBFFF70AFF0020D9E77B
:1045500070B5054600246048001D006820F0F0009A
:104560005D49091D08600846006840F08000086049
:10457000002617E000205949091F0860022001F0B9
:1045800072F901205649C1F8A0016006040E534893
:104590008038006808B1601CC4B2022001F063F9E1
:1045A000701CC6B2082EE5DB15B1FFF72BFF01E04A
:1045B000FFF74CFF204670BD2DE9F04106460F463F
:1045C00014461D46FFF79CFE10B90120BDE8F0819E
:1045D0007106080EFFF75DFFFFF7E4FE18B9FFF75D
:1045E000BFFE0120F2E73846FFF753FFFFF7DAFE80
:1045F000FFF786FE012101EB4601C8B2FFF749FF34
:10460000FFF7D0FE0DE0012C04D10020FFF7A0FF42
:10461000287003E00120FFF79BFF28706D1C601ECF
:10462000C4B2002CEFD1FFF79BFE0020CEE770B59F
:1046300005460E460024FFF763FE2846FFF729FFD4
:10464000641CFFF7AFFE3046FFF723FF641CFFF743
:10465000A9FEFFF755FE691CC8B2FFF71AFF641CDC
:10466000FFF7A0FE0020FFF773FF0446FFF778FE78
:10467000204670BD2DE9F0410746884615461E4686
:104680000024FFF73DFE3846FFF703FFFFF78AFEE1
:104690004046FFF7FEFEFFF785FEFFF731FE791C6F
:1046A000C8B2FFF7F6FEFFF77DFE00BF0DE0681E03
:1046B000A04204D00120FFF74BFF305503E000205B
:1046C000FFF746FF3055601CC4B2AC42EFDBFFF78A
:1046D00047FE2046BDE8F081000C0140A481214244
:1046E000008021422DE9F04180460D4616461F46C6
:1046F0000024FFF705FE4046FFF7CBFEFFF752FE12
:104700002846FFF7C6FEFFF74DFE00BF06E0385D06
:10471000FFF7BFFEFFF746FE601CC4B2B442F6DBF3
:10472000FFF71EFE0120BDE8F08170B505460E467C
:10473000144631462846FFF77AFF2070012070BDED
:1047400037B504460D4602AB012229462046FFF745
:10475000C9FF3EBD2DE9F8430746884614461D466D
:10476000089E6A4641463846FFF7DFFF28B3601CC3
:10477000FF2101FA00F0C4F108012944491EFF227B
:104780000A41104300F0FF09C5F1080006FA00F0E5
:10479000C6B2C4F1070006419DF8000000EA090016
:1047A00000909DF80000304300909DF800204146A5
:1047B0003846FFF7C5FFBDE8F8830020FBE7F8B5F2
:1047C00006460F4614461D466A4639463046FFF7F0
:1047D000ACFF2DB10120A0409DF80010084305E07A
:1047E0000120A0409DF8001021EA0000C0B2009016
:1047F0009DF8002039463046FFF7A2FFF8BD0000C3
:1048000008B50121082001F0C9FC4FF47040ADF853
:10481000000010208DF8030003208DF80200694687
:104820002A4801F0FFF908BD30B589B005460C46AD
:10483000FFF7E6FF0121C80201F0B0FC01210420CE
:1048400001F0ACFC4FF41060ADF8200018208DF89A
:10485000230003208DF8220008A91D4801F0E2F989
:10486000ADF81850ADF814400020ADF81A00ADF8BE
:10487000160005A9174801F0C9FD6020ADF8040035
:104880000120ADF806000020ADF80A00ADF80C00DC
:1048900001A9104801F0F7FD01A90E4801F0CDFE75
:1048A00001210C4802F01AF908210A4802F03AFAEC
:1048B0000821084802F055FA0121064802F002FAE0
:1048C0000121044802F0FEF809B030BD000C01409F
:1048D00000080140002C0140014691F90020002A07
:1048E00001DD00201EE091F90020002A01DA0420F9
:1048F00018E091F90120002A01DD012012E091F970
:104900000120002A01DA05200CE091F90220002A9A
:1049100001DD022006E091F90220002A01DA0620DA
:1049200000E00720704770B505462846FFF7D4FF22
:104930000446E81CFFF7D0FF44EAC00084B2A81D7B
:10494000FFF7CAFF44EA801084B2204670BD70B5FC
:1049500088B002A905A8FEF7FCF80446072C3FD151
:1049600001A8FDF76BFB059804F0B8FD0646019918
:1049700004F014FE054604F075FD0590069804F059
:10498000ADFD0646019904F009FE054604F06AFDF6
:104990000690079804F0A2FD0646019904F0FEFD7A
:1049A000054604F05FFD079005A8FEF7E2FB6846A8
:1049B000FDF761FBBDF80010029848430290BDF876
:1049C0000010039848430390BDF800100498484332
:1049D000049002A8FEF760FCFEA003F02FF800BFD1
:1049E00008B070BD2DE9F04304460D46DDE90767C8
:1049F0000021012041E0DFF800C43CF81080A0F164
:104A0000010CDFF8F49329F81C8009F1160C3CF82E
:104A10001090A0F1010CDFF8E08308F1160828F8E7
:104A20001C9008F1160C3CF81090A0F1010C08F154
:104A3000160828F81C9008F1160C3CF81090A0F10C
:104A4000010C08F1160828F81C9008F1160C3CF827
:104A50001090A0F1010C08F1160828F81C9008F13C
:104A6000160C3CF81090A0F1010C08F1160828F87B
:104A70001C9000F1010C0CF0FF000A28BBDBDFF8F2
:104A800078C3ACF81240ACF82850ACF83E20ACF833
:104A90005430ACF86A60ACF880700021002008E067
:104AA000DFF854C33CF910C0614400F1010C0CF074
:104AB000FF000A28F4DB4FF00A0C91FBFCFC0FFA14
:104AC0008CFCDFF83483A8F814C0002100200AE031
:104AD000DFF824C30CF1160C3CF910C0614400F15E
:104AE000010C0CF0FF000A28F2DB4FF00A0C91FBDE
:104AF000FCFC0FFA8CF8DFF800C3ACF82A80002128
:104B000000200AE0DFF8F0C20CF12C0C3CF910C0D8
:104B1000614400F1010C0CF0FF000A28F2DB4FF0B9
:104B20000A0C91FBFCFC0FFA8CF8DFF8CCC2ACF855
:104B30004080002100200AE0DFF8BCC20CF1420CEA
:104B40003CF910C0614400F1010C0CF0FF000A2890
:104B5000F2DB4FF00A0C91FBFCFC0FFA8CF8DFF84B
:104B600098C2ACF85680002100200AE0DFF888C225
:104B70000CF1580C3CF910C0614400F1010C0CF030
:104B8000FF000A28F2DB4FF00A0C91FBFCFC0FFA45
:104B90008CF8DFF864C2ACF86C80002100200AE0D9
:104BA000DFF854C20CF16E0C3CF910C0614400F106
:104BB000010C0CF0FF000A28F2DB4FF00A0C91FB0D
:104BC000FCFC0FFA8CF8DFF830C2ACF88280BDE84C
:104BD000F08338B50446032302226B21D0200094D1
:104BE000FFF7B8FD38BD38B50446022304221B2167
:104BF000D0200094FFF7AEFD38BD38B5044602233F
:104C000004221C21D0200094FFF7A4FD38BD10B56C
:104C10000446234606226B21D020FFF7D0FD10BDAD
:104C200010B5764B01227521D020FFF723FD734884
:104C3000007810BD10B5FFF7F3FF682801D10120FF
:104C400010BD0020FCE710B50446234605226A216A
:104C5000D020FFF7B4FD10BD10B504462346012255
:104C60003721D020FFF7ABFD10BD10B50220FFF7B4
:104C7000B0FF0320FFF7B7FF0020FFF7BEFF0020C3
:104C8000FFF7C5FF0020FFF7DEFF0020FFF7E4FF7E
:104C900010BD38B5002000906B46012275216820B8
:104CA000FFF78AFC01205649087056A002F0C6FEA4
:104CB0009DF8000068280ED000BF5B48006800F433
:104CC000E0605A490843001D57490860BFF3408F10
:104CD00000BF00BFFEE7FCF7BEFE00283CD17820F5
:104CE000FCF721FB10B947A002F0A8FE7820FCF7E2
:104CF00001FD10B94EA002F0A1FEC820FCF7DBFDBB
:104D000010B955A002F09AFEFEF798F910B95CA010
:104D100002F094FE6748FFF706FE0446FEF798F996
:104D200010B965A002F08AFE40F27310FEF7D1FDC3
:104D300010B96BA002F082FEC820FEF743FB10B949
:104D400071A002F07BFEFFF702FE0120FDF7BCFE22
:104D500010B976A002F072FE00202949087038BD13
:104D60002DE9F04F8DB00AA879490BAB06AACDE921
:104D7000001078497848FEF70BFF7548008800F46A
:104D80008070002824D0069804F0A8FB04464FF059
:104D90009D4104F071FA71490860079804F09EFB88
:104DA00004464FF09D4104F067FA6D490860089889
:104DB00004F094FB04464FF09D4104F05DFA69490C
:104DC0000860099804F08AFB04464FF09D41CBE04F
:104DD00054E1000073657474696E672062696173E1
:104DE0002073756363657366756C6C79202E2E2E47
:104DF0002E2E2E0D0A000000F6060020E8060020E8
:104E0000070000206D70755F7365745F73656E7366
:104E10006F7220636F6D706C657465202E2E2E2E60
:104E20002E2E0D0A000000000CED00E00000FA0537
:104E30006D70755F636F6E6669677572655F6669D1
:104E4000666F20636F6D706C657465202E2E2E2E3C
:104E50002E2E0D0A000000006D70755F7365745F83
:104E600073616D706C655F7261746520636F6D70E6
:104E70006C657465202E2E2E2E2E2E0D0A0000003D
:104E8000646D705F6C6F61645F6D6F74696F6E5F8E
:104E90006472697665725F6669726D7761726520AA
:104EA000636F6D706C657465202E2E2E2E2E2E0D68
:104EB0000A00000064010020646D705F7365745F18
:104EC0006F7269656E746174696F6E20636F6D7067
:104ED0006C657465202E2E2E2E2E2E0D0A000000DD
:104EE000646D705F656E61626C655F666561747547
:104EF000726520636F6D706C657465202E2E2E2E8A
:104F00002E2E0D0A00000000646D705F7365745FE3
:104F10006669666F5F7261746520636F6D706C6542
:104F20007465202E2E2E2E2E2E0D0A006D70755FAC
:104F30007365745F646D705F737461746520636F13
:104F40006D706C657465202E2E2E2E2E2E0D0A008F
:104F500048010020420100203C01002054010020B3
:104F6000580100205C01002004F086F960490860C7
:104F7000604801684FF0804004F010FB04905E48E8
:104F80000168049804F00AFB82465C4801684FF00F
:104F9000404004F003FB049055480168049804F075
:104FA000FDFA8346514604F0F9F8059004F0CAF87A
:104FB000804602F0FBFF06464FF06632504B03F08E
:104FC000E7FD044603F020FB4E4908604A480168AB
:104FD0004FF0804004F0E2FA0190474801680198E0
:104FE00004F0DCFA8246454801684FF0404004F086
:104FF000D5FA019041480168019804F0CFFA834640
:10500000514604F0D3FB81464FF07E5104F0C6F8C0
:10501000044604F097F8CDE90401364801684FF0E2
:10502000804004F0BBFA834634480168584604F0D7
:10503000B5FA8146304801684FF0804004F0AEFA7E
:1050400083462B480168584604F0A8FA8246494630
:1050500004F0A4F8044604F075F8CDE90201DDE996
:10506000042303F0EBF907464FF06632244B03F0BC
:105070008FFD054603F0C8FA234908600DB0BDE86E
:10508000F08F2DE9F05F4221D020FFF7D0FA0546DE
:105090004121D020FFF7CBFA05EB0024204604F095
:1050A0001DFA82464FF08E41504604F043FB05D274
:1050B0004FF08F41504604F079FB82461349504629
:1050C00004F0DAF8834604F03DF88046104A114BAC
:1050D00003F0CCFA064600220F4B03F059FD0446BC
:1050E00003F092FA8246504604F0BCF9BDE8F09F06
:1050F00060010020540100205C01002058010020C4
:1051000066A64C404C010020500100200000AA433C
:10511000A4703D0AD74342400000244008B5012155
:10512000202001F03BF83020ADF8000010208DF871
:10513000030003208DF802006946F64800F072FD76
:105140003021F44800F01BFE08BD10B50120F249E3
:10515000086000F088FB0120F049C1F8900100F0E0
:1051600082FB0020EC490860012000F07CFB00205D
:10517000EA49C1F8900110BD10B50020E649086069
:10518000012000F070FB0020E449C1F890010120EB
:1051900000F069FB0120E049086000F064FB012099
:1051A000DE49C1F8900110BD70B5044600251DE030
:1051B00004F0800018B10120D749086002E0002007
:1051C000D5490860012000F04EFB0120D249091F9B
:1051D000086000F048FB0020D049C1F89001012090
:1051E00000F041FB6006040E681CC5B2082DDFDB31
:1051F0000120C949091F086000F035FB0020C7499C
:10520000C1F8900170BD10B50446FFF79EFF7820ED
:10521000FFF7CAFF4020FFF7C7FF2046FFF7C4FF94
:10522000FFF7AAFF10BD10B50446FFF78EFF7820E8
:10523000FFF7BAFF0020FFF7B7FF2046FFF7B4FFE4
:10524000FFF79AFF10BD70B504460D4605F1B00199
:10525000C8B2FFF7E8FF102141EA1410FFF7E3FF9F
:1052600004F00F0141F00100FFF7DDFF70BD70B5E4
:105270000646002415E004F1B001C8B2FFF7D3FFE1
:105280000120FFF7D0FF1020FFF7CDFF002504E03D
:105290003046FFF7B8FF681CC5B2802DF8DB601CF4
:1052A000C4B2082CE7DB70BD10B50020FFF7DFFFAC
:1052B00010BD10B58D20FFF7B6FF1420FFF7B3FF28
:1052C000AF20FFF7B0FF10BD10B58D20FFF7ABFF8B
:1052D0001020FFF7A8FFAE20FFF7A5FF10BD10B507
:1052E000FFF71CFF642000F0E2FAAE20FFF79BFFFF
:1052F0000020FFF798FF1020FFF795FF4020FFF7F1
:1053000092FF8120FFF78FFFC420FFF78CFFA120C1
:10531000FFF789FFC820FFF786FFA620FFF783FF6E
:10532000A820FFF780FF3F20FFF77DFFD320FFF786
:105330007AFF0020FFF777FFD520FFF774FF80206A
:10534000FFF771FFD920FFF76EFFF120FFF76BFF2A
:10535000DA20FFF768FF1220FFF765FFDB20FFF779
:1053600062FF4020FFF75FFF2020FFF75CFF022075
:10537000FFF759FF8D20FFF756FF1420FFF753FF6B
:10538000A420FFF750FFA620FFF74DFFAF20FFF747
:105390004AFF0020FFF76BFF00210846FFF753FF8D
:1053A00010BD2DE9F05F0446894615469A464FF038
:1053B000000B00260027BAF1000F01D1B04601E032
:1053C0004FF0FF0822E0E85D203800F0FF0B7E2C54
:1053D00004DD002409F1010000F0FF0949462046E0
:1053E000FFF731FF00260BE00BEB4B014C4A02EBC1
:1053F0004101895D81EA0800FFF705FF701CC6B214
:10540000062EF1DBA01DC4B2781CC7B2E85D0028EF
:10541000D9D1BDE8F09F2DE9F05F07468846914657
:105420009B4600250024A246BBF1000F01D10026B7
:1054300000E0FF2638E019F80A002038C5B2782FBE
:1054400004DD002708F1010000F0FF08414638465E
:10545000FFF7F9FE002409E004EB0511314A515C25
:1054600081EA0600FFF7CFFE601CC4B2082CF3DB14
:1054700008F10100C1B23846FFF7E5FE00240AE05A
:1054800004EB05110831274A515C81EA0600FFF759
:10549000BAFE601CC4B2082CF2DB07F10800C7B2E8
:1054A0000AF1010000F0FF0A19F80A000028C2D131
:1054B000BDE8F09F2DE9F04705460E461746984691
:1054C0004FF0000907EB47004FEA400AB8F1000F20
:1054D00001D1002400E0FF247E2D02DD0025701C98
:1054E000C6B231462846FFF7AEFE4FF000090CE089
:1054F00051460AF1010A0C4A515C81EA0400FFF7A7
:1055000082FE09F1010000F0FF09B9F1060FEFDB9F
:10551000BDE8F087001401409481224200802242BD
:10552000CEA50008F6A70008740100202DE9F04779
:1055300007460E469046994600244FEA081AB9F1EC
:10554000000F01D1002500E0FF25782F02DD0027A4
:10555000701CC6B231463846FFF775FE00240AE0DB
:1055600051460AF1010A9C4A515C81EA0500FFF7A5
:105570004AFE601CC4B2082CF2DB701CC1B2384673
:10558000FFF761FE00240AE051460AF1010A924A3F
:10559000515C81EA0500FFF736FE601CC4B2082C9E
:1055A000F2DBBDE8F0872DE9F04782460F469046D2
:1055B000994600244FEA4815B9F1000F01D10026A1
:1055C00000E0FF2639465046FFF73DFE002408E084
:1055D0008249495D81EA0600FFF715FE6D1C601CDB
:1055E000C4B2102CF4DB781CC1B25046FFF72BFE7E
:1055F000002408E07949495D81EA0600FFF703FECF
:105600006D1C601CC4B2102CF4DBBDE8F0872DE9E2
:10561000FC410746884614461E4600208DF80500CA
:105620000A20B4FBF0F100FB114030308DF804008B
:105630000A20B4FBF0F4B4FBF0F100FB1140303071
:105640008DF803000A20B4FBF0F4B4FBF0F100FB8A
:10565000114030308DF802000A20B4FBF0F4B4FBA6
:10566000F0F100FB114030308DF801000A20B4FB4E
:10567000F0F4B4FBF0F100FB114030308DF8000085
:1056800000250AE01DF80500302803D120200DF880
:10569000050000E003E0681CC5B2042DF2DB00BF8A
:1056A00016B1012E0ED106E000236A464146384667
:1056B000FFF777FE07E000236A4641463846FFF7CA
:1056C000AAFE00E000BF00BFBDE8FC812DE9FF5F3E
:1056D00081468A461646984600208DF80F002E20F7
:1056E0008DF80C000021304603F024FF05D286F02F
:1056F00000462D208DF8080002E020208DF80800DB
:10570000304603F0CBFE0446642104FB01F003F0B5
:10571000FDFE33490190304603F040FF00900199AF
:1057200004F044F8834603F0B9FEC7B20A20B4FB84
:10573000F0F100FB114030308DF80B000A20B4FB73
:10574000F0F4B4FBF0F100FB114030308DF80A00AA
:105750000A20B4FBF0F404F13000C0B28DF8090067
:105760000A2097FBF0F100FB11703030C0B28DF8C9
:105770000E000A2097FBF0F0C7B207F13000C0B26C
:105780008DF80D0001250AE002A8405D302803D104
:10579000202002A9485500E003E0681CC5B2032D93
:1057A000F2DB00BFB8F1000F03D0B8F1010F0ED14A
:1057B00006E0002302AA51464846FFF7F2FD07E043
:1057C000002302AA51464846FFF725FE00E000BF2D
:1057D00000BFBDE8FF9F00007A0700207A0100208B
:1057E0000000C84270B500211048006803F0A2FE16
:1057F0000FD20F490D48006803F0D0FC054603F0B6
:105800004DFE04460023224619461846FFF7FFFEC8
:105810000AE00648006803F041FE044600232246E1
:1058200019461846FFF7F3FE70BD00002000002067
:105830000000B44310B56FF0040000F074F92E4876
:1058400000682E49B0FBF1F02D4908700846007839
:1058500000EB4001C1EBC0104FF6FF7101EAC00040
:105860002849088010BD0146254A12784A434FF066
:10587000E0235A6100229A611A46126942F001023D
:105880001A6100BF4FF0E022106900F001021AB166
:1058900000F48032002AF5D04FF0E022126922F0A5
:1058A00001024FF0E0231A6100229A61704701461D
:1058B000144A12884A434FF0E0235A6100229A6149
:1058C0001A46126942F001021A6100BF4FF0E0224D
:1058D000106900F001021AB100F48032002AF5D0FC
:1058E0004FF0E022126922F001024FF0E0231A612A
:1058F00000229A61704700005000002000127A00D8
:105900009A0600209C060020014600BF704700BF99
:10591000494A128802F04002002AF9D0C2B2464B2E
:105920001B1D1A80704710B586B00446012144F251
:10593000040000F033FC4FF40070ADF814000320B5
:105940008DF8160018208DF8170005A93B4800F0C7
:1059500069F94FF48060ADF8140004208DF8170049
:1059600005A9364800F05EF925208DF800000320D7
:105970008DF801008DF8020001208DF803006846C3
:1059800000F087F801940020ADF80800ADF80A0097
:10599000ADF80C00ADF810000C20ADF80E0001A918
:1059A000254801F0B0FB012240F22551224801F0C8
:1059B00042FC0121204801F032FC06B010BD10B5B8
:1059C00040F225511C4801F01BFD10B31A4801F0AC
:1059D00097FCC4B21A48008800F40040C8B91848BF
:1059E000008800F4804060B10A2C03D000201449E4
:1059F000088020E01248008840F4004010490880E8
:105A000019E00D2C06D10E48008840F480400C4966
:105A1000088010E00A480088C0F30D0009490C54C2
:105A200007480088401C0649088008460088C728A7
:105A300001DD0020088010BD003801400008014051
:105A4000A40600208A07002009488047094800472B
:105A5000FEE7FEE7FEE7FEE7FEE7FEE7FEE7FEE71E
:105A6000FEE7FEE704480549054A064B704700007B
:105A70007F03000831010008B8080020B80E00209C
:105A8000B80A0020B80A002031490143314A1160A8
:105A9000704770B5002100230F22C47804B32D4C49
:105AA000246804F4E064C4F5E064210AC1F104034D
:105AB000CA40447804FA03F1847814402143090170
:105AC000254C0678A155047804F01F050124AC404C
:105AD00005786D11AD0005F1E025C5F8004109E03C
